:020000040800F2
:10000000500A0020AD010008F3220008C51B0008BB
:10001000F1220008F1020008792A0008000000001F
:100020000000000000000000000000003D25000866
:10003000F302000800000000F52200083F25000838
:10004000C7010008C7010008C7010008C701000870
:10005000C7010008C7010008C7010008C701000860
:10006000C7010008C7010008C7010008C701000850
:10007000C7010008C7010008C7010008C701000840
:10008000C7010008C7010008C70100080000000000
:10009000000000000000000000000000C701000890
:1000A000C7010008E1250008C7010008C7010008D2
:1000B000C7010008C7010008C7010008C701000800
:1000C000C7010008C7010008C7010008C7010008F0
:1000D000C7010008C7010008C701000800000000B0
:1000E000C7010008C7010008C701000800000000A0
:1000F000000000000000000000000000C701000830
:1001000000000000C7010008C7010008C70100087F
:1001100000000000000000000000000000000000DF
:10012000C7010008C7010008C7010008C70100088F
:10013000C7010008000000000000000000000000EF
:10014000000000000000000000000000C7010008DF
:10015000C7010008C7010008C7010008C70100085F
:10016000C7010008C70100080000000000000000EF
:10017000000000000000000000000000000000007F
:1001800000000000C701000800000000000000009F
:10019000C7010008C7010008DFF80CD000F096F88E
:1001A00000480047B12D0008500A0020064880474B
:1001B00006480047FEE7FEE7FEE7FEE7FEE7FEE74C
:1001C000FEE7FEE7FEE7FEE7D125000899010008FB
:1001D0002DE9F05F0546002092469B46884606467C
:1001E000814640241BE0284641464746224600F00F
:1001F0005CF853465A46C01A914110D3114618462E
:10020000224600F043F82D1A67EB01084F462246BC
:100210000120002100F03AF817EB00094E41201EA2
:10022000A4F10104DFDC484631462A464346BDE8D6
:10023000F09F40EA01039B0703D009E008C9121FA1
:1002400008C0042AFAD203E011F8013B00F8013B90
:10025000521EF9D27047D2B201E000F8012B491EBC
:10026000FBD270470022F6E710B513460A46044653
:100270001946FFF7F0FF204610BD034611F8012B89
:1002800000F8012B002AF9D118467047202A04DB18
:10029000203A00FA02F1002070479140C2F1200399
:1002A00020FA03F3194390407047202A04DB203AD8
:1002B00021FA02F00021704721FA02F3D040C2F186
:1002C000200291400843194670470000064C074D34
:1002D00006E0E06840F0010394E807009847103416
:1002E000AC42F6D3FFF75CFFB02E0008D02E00081A
:1002F000FEE7704772B6FEE770B5044600F004F9F9
:100300000546601C02D004480078044400F0FCF864
:10031000401BA042FAD370BD000000202DE9F84F29
:10032000DFF8B8A10022012403254FF00F090AF1DC
:10033000040BAAF1040E00BF0B6804FA02F6334066
:10034000B34273D10F7907F00307012F01D0022FB9
:1003500016D187684FEA420805FA08FC27EA0C071D
:10036000D1F80CC00CFA08FC4CEA070CC0F808C025
:100370004768B7430E79C6F3001696403E43466081
:100380000E79F643B6070DD0C768560005FA06FC8D
:1003900027EA0C07D1F808C00CFA06FC4CEA070C57
:1003A000C0F80CC00E7906F00306022E10D1D60854
:1003B00000EB8608D8F8206057074FEAD76C09FA97
:1003C0000CF7BE430F6907FA0CF73743C8F82070E3
:1003D00006684FEA420C05FA0CF7BE430F7907F0A6
:1003E000030707FA0CF7374307604E6816F4403FDF
:1003F0006DD03B4E376847F480473760366822F04F
:10040000030706F480460096364E07EB060CDCF830
:10041000086897073F0F09FA07F826EA0806DFF889
:10042000C880404503D14FF000081EE04FE0DFF8E0
:10043000BC80404502D14FF0010816E0DFF8B080E3
:10044000404502D14FF002080FE0DFF8A880404598
:1004500002D14FF0030808E0DFF89C80404502D14C
:100460004FF0040801E04FF0070808FA07F848EADF
:100470000608CCF80888DAF800605746D1F804C0BE
:100480009E435FEACC2C00D51E433E60DBF8006043
:100490005F46D1F804C09E435FEA8C2C00D51E4312
:1004A0003E60DEF800607746D1F804C09E435FEA04
:1004B0008C3C00D51E433E60084F083F3E68D1F893
:1004C00004C09E435FEACC3C00D51E433E60521CF4
:1004D000102AFFF431AFBDE8F88F0000083C01405E
:1004E0004438024000300140000002400004024055
:1004F00000080240000C0240001002400AB1816175
:1005000070470904FBE7000001488068704700005D
:100510000000002070B5040025D094F83D000025AF
:1005200020B984F83C50204600F008FB242084F8D1
:100530003D002068016821F0010101602068016828
:1005400041F4004101602068016821F4004101602C
:1005500000F0A4FC4D4A6168914201D84C4900E08A
:100560004C49884201D2012070BD4B492368B0FB41
:10057000F1F15E6826F03F060E435E6063689342C9
:1005800006D94FF4967359434FF47A73B1FBF3F1E4
:100590002368491C1E6A26F03F06314319626168D0
:1005A000914210D84900401EB0FBF1F2521CC2F338
:1005B0000B02042A01D2042022E0B0FBF1F0401C1F
:1005C000C0F30B001CE0A268F2B301EBC10303EB24
:1005D0000116431EB3FBF6F35B1C43F480431B057B
:1005E00049D092B301EBC10202EB0111401EB0FBF6
:1005F000F1F0401CC0F30B0040F4804040F4004098
:100600002168CA694CF6FF739A431043C861D4E964
:10061000071001432068026822F0C0021143016004
:10062000D4E9030101432068826848F2FF339A430A
:1006300011438160D4E9050108432168CA6822F0AA
:10064000FF021043C86001E00EE016E02068016878
:1006500041F0010101602564202084F83D002563FC
:1006600084F83E50002070BD01EB4106431EB3FBF1
:10067000F6F35B1CB3E70120C2E701EB4101401E2A
:10068000B0FBF1F0401CC0F30B00B7E7A0860100FF
:1006900080841E0000093D0040420F002DE9FF4FFD
:1006A00081B089460446FFF72FFF054694F83D00C8
:1006B0004FF0000820287DD11923012250492046FF
:1006C000009501F0D7FB002874D194F83C00012874
:1006D00070D0012084F83C0020680168C90703D16C
:1006E000016841F0010101602068016821F40061A6
:1006F0000160242084F83D00002626644148E06221
:100700004FF0011B20272068016841F480710160CF
:100710000095002259462046049B01F0ABFB50B1E6
:1007200020680068C00502D54FF4007020640320E3
:1007300005B0BDE8F08F216809F0FE000861FFF701
:10074000E3FE2168054648694969C0F34000C1F3EA
:1007500080214FF0A00A0FE0FFF7D6FE411B04985E
:10076000814200D808B984F83DA0216848694969E8
:10077000C0F34000C1F3802194F83D20A02A02D0AC
:1007800008B90029E8D084F83D7020684169C94360
:10079000890716D4016841F400710160206841693D
:1007A00080691923012216492046009501F062FB59
:1007B000B8B900E021E084F83D7084F83C60002086
:1007C000B6E7016841F40071016021686FF4806050
:1007D0004861192301220A492046009501F04AFB8D
:1007E00008B10120A4E7039808F1010880458AD3E5
:1007F00084F83D7084F83C60F3E7022098E700003D
:10080000020010000000FFFF2DE9FF4F83B09A4661
:10081000DDE9118793460446DDF84090FFF774FE4A
:10082000054694F83D00202870D11923012274490F
:100830002046009501F01EFB0028F5D194F83C00FD
:10084000012863D0012084F83C0020680168C907B2
:1008500003D1016841F0010101602068016821F4C1
:1008600000610160222084F83D00402084F83E00B1
:1008700000262664C4F82490A4F82A80608D208580
:100880006048E062CDE9007553465A462046049917
:1008900001F0B0F9002879D1208DD0B1012821D004
:1008A0000228206824D0416980690090208D0328A7
:1008B00066D801282BD0544902283B464FF000024D
:1008C000009557D08846204601F0D4FA00285DD123
:1008D0003AE02068416981690091016841F4007142
:1008E00001607DE02068016821F480610160F0E72B
:1008F000016821F4806101602068016841F40061B1
:100900000160206841698069009069E075E02A46CD
:100910003946204601F054FB88BB54E0206801684A
:1009200041F40071016020680069616A0870606AC2
:10093000401C6062218D491E2185618D491E6185A3
:1009400021680969017042E02068016821F4806132
:10095000016020680069616A0870606A401C60621A
:10096000208D401E2085608D401E60853B46002204
:1009700041460095204601F07DFA00B9CEE705E03A
:100980002A463946204601F01BFB18B1012007B06A
:10099000BDE8F08F20680069616A0870606A401CD9
:1009A0006062208D401E81B22185608D401E608571
:1009B00020684269D243520712D4032903D1016847
:1009C00021F48061016020680069616A0870606AD2
:1009D000401C6062208D401E2085608D401E608519
:1009E000208D00287FF462AF202084F83D0084F839
:1009F0003E6084F83C600020C9E70220C7E70000A1
:100A0000020010000000FFFF040001002DE9FF4F6D
:100A100083B09A46DDE9119793460446DDF840809D
:100A2000FFF772FD054694F83D0020287FD1192379
:100A3000012240492046009501F01CFA002876D199
:100A400094F83C00012872D0012084F83C00206812
:100A50000168C90703D1016841F001010160206804
:100A6000016821F400610160212084F83D004020EC
:100A700084F83E0000262664C4F82480A4F82A9056
:100A8000608D20852C48E062CDE9007553465A46BA
:100A90002046049901F02CF970B930E02A46394615
:100AA000204601F0C5FA58B1206C042804D1206812
:100AB000016841F400710160012007B0BDE8F08FCA
:100AC000606A216800780861606A401C6062218D5C
:100AD000491E89B22185628D521E62852268536942
:100AE000DB435B070BD469B100781061606A401C7E
:100AF0006062208D401E2085608D401E6085208DA7
:100B00000028CBD12A463946204601F087F9002833
:100B1000CAD154F83D0B016841F4007101602020F6
:100B200004F81E09E67766770020C6E7FFE7022093
:100B3000C3E70000020010000000FFFF10B586B000
:100B4000044614216846FFF78DFB1449206888424B
:100B500021D113480021026842F0020202600068BD
:100B600000F0020005904FF4C07000901220CDE913
:100B70000101032003900420049069460948FFF70F
:100B8000CDFB07481030016841F400110160006896
:100B900000F40010059006B010BD000000540040A5
:100BA0003038024000040240024881680278114453
:100BB00081607047000000200B4810B5016841F4C7
:100BC00000710160016841F480610160016841F4D5
:100BD00080710160032000F095F80F2000F006F806
:100BE00000F04AF8002010BD003C024030B5054638
:100BF0001C4887B00024016841F0010101600068D1
:100C000006A900F00100009001A800F027F900F00B
:100C100055F91549154AB0FBF1F11548491E026016
:100C200040F2E732C0E90324C0E90114846100F016
:100C30000FFC040012D10E4800F06AFC04000DD134
:100C4000192000F031F8102D07D200222946192072
:100C500000F038F80748056000E0012407B020469E
:100C600030BD00004438024040420F000000014007
:100C70004C010020040000200A4808B5016841F436
:100C800080410160006800F4804000900548001F2A
:100C9000016841F080510160006800F080500090D0
:100CA00008BD000044380240002809DB00F01F02A4
:100CB000012191404009800000F1E020C0F80011BE
:100CC00070470000F0B40E4B1B680C46C3F30223C0
:100CD000C3F10705042D00D90425191D072901D2E8
:100CE000002300E0DB1E012606FA05F1491E214023
:100CF00099409E40761E16403143F0BC02F039B850
:100D00000CED00E0064900F0070208684FF6FF030B
:100D1000184040EA0220034A104308607047000070
:100D20000CED00E00000FA052DE9F0470E46050045
:100D300065D0DFF81481D8F80000F7B200F00700A2
:100D4000B04207D288F80070D8F8000000F0070021
:100D5000B04254D128683D4C810712D5400703D5D5
:100D6000206840F4E05020602878000703D5206810
:100D700040F4604020602068A96820F0F00008433B
:100D800020602878C0072DD03049686808390128CC
:100D900012D0022813D0032811D00968890700292E
:100DA0002DDA216821F0030101432160FFF7ACFB3C
:100DB000814641F2883A0EE009688903EFE7096845
:100DC0008901ECE7FFF7A0FBA0EB0901514502D92F
:100DD0000320BDE8F0872068696800F00C00B0EBE4
:100DE000810FEFD1D8F80010404601F00701B14261
:100DF00007D90770006800F00700B04201D0012059
:100E0000E7E72878400705D52068E96820F4E05036
:100E1000084320602878000706D52068296920F457
:100E2000604040EAC100206000F058F82168084A9C
:100E3000C1F30311515CC8400649086006480068C8
:100E4000FFF7D4FE0020C4E7003C0240083802400F
:100E5000882E00080C000020040000200F220260F1
:100E60000C4A136803F003034360136803F0F003B4
:100E70008360136803F4E053C36012684FF4E053D7
:100E800003EAD20202610448006800F0070008602B
:100E90007047000008380240003C02400448054901
:100EA00000680968044AC1F38221515CC840704758
:100EB0000C00002008380240982E0008044805491C
:100EC00000680968044AC1F34231515CC840704768
:100ED0000C00002008380240982E0008154810B574
:100EE000006810F00C02144813D01449042A0FD0E3
:100EF000082A0ED10F4C241F2268236802F03F02FB
:100F00005B0207D52068C0F38810A0FB010106E052
:100F1000084610BD2168C1F38811A1FB0001002320
:100F2000FFF756F92168C1F30141491C4900B0FBA4
:100F3000F1F010BD083802400024F40040787D0133
:100F40002DE9F84F04006ED02078DFF84C93C007ED
:100F5000A9F104054AD009F104000168C1F3810137
:100F6000012908D00068C0F3810002280AD1D9F80D
:100F70000000400206D52868800337D56068002845
:100F8000E1D033E06068B0F5803F10D0B0F5A02F1D
:100F9000286810D020F480302860286820F4802051
:100FA00028606068A8B1FFF7AFFA06460DE0286830
:100FB00040F48030F4E740F480202860F7E700BF79
:100FC000FFF7A2FA801B642873D828688003F7D53E
:100FD0000CE0FFF799FA064605E000BFFFF794FA28
:100FE000801B6428F0D828688003F7D42078DFF8C5
:100FF000AC8280074FF0000A3ED5A748001D01686B
:1010000011F00C0F08D00068C0F3810002280BD14A
:10101000D9F80000400207D42868800716D5E06898
:10102000012800D112E033E1E068B8B10120C8F82E
:101030000000FFF769FA064605E000BFFFF764FA13
:10104000801B0228C0D828688007F7D52868216946
:1010500020F0F80040EAC10028600DE0C8F800A0C8
:10106000FFF752FA064604E0FFF74EFA801B02280B
:101070001FD828688007F7D42078000722D5864F2C
:1010800087486169703771B101210160FFF73CFA4F
:10109000064604E0FFF738FA801B022809D83868B2
:1010A0008007F7D50EE0C0F800A0FFF72DFA06463E
:1010B00005E082E0FFF728FA801B02287DD8386817
:1010C0008007F7D42078400768D5DFF8CCB1002737
:1010D0000BF13C0BDBF80000C0000BD4DBF8001078
:1010E00041F08051CBF80010DBF80000012700F040
:1010F000805000906B4E3068C00510D4306840F4CA
:1011000080703060FFF700FA009005E0FFF7FCF90F
:101110000099401A022850D83068C005F6D55E4EB6
:10112000A0686C3601280FD00528306810D020F058
:1011300001003060306820F004003060A068B8B171
:10114000FFF7E2F900900FE0306840F00100F4E7AB
:1011500040F004003060F7E7FFF7D6F90099411A34
:1011600041F28830814266D830688007F4D50EE0BD
:10117000FFF7CAF9009007E0FFF7C6F90099411A96
:1011800041F28830814256D830688007F4D42FB1BC
:10119000DBF8001021F08051CBF80010A069C8B333
:1011A0003D49091D0968C1F3810102294AD002287D
:1011B000504607D0C8F8600000E03CE0FFF7A4F913
:1011C00004463BE04746C8F86000FFF79DF9064635
:1011D00005E000BFFFF798F9801B02282BD828688C
:1011E0008001F7D4D4E907010843A16A2E4A4908CF
:1011F00002EB0141626A41EA8211084394F82C1023
:1012000040EA0161C9F8001001203866FFF77CF957
:10121000044606E03EE000BFFFF776F9001B022817
:1012200009D828688001F7D534E000BFFFF76CF9D2
:10123000001B022802D90320BDE8F88F286880012E
:10124000F4D427E00128F7D0D9F80000E26900F4CF
:10125000800191421CD1226A00F03F01914217D1D6
:1012600047F6C071626A0140B1EB821F10D1A26AD9
:101270004FF0FF3300F4403103EB5202B1EB024F69
:1012800006D194F82C1000F07060B0EB016F01D023
:101290000120D1E70020CFE7043802400000474298
:1012A000800E4742007000400000FFFF70B5040050
:1012B00009D0606A002540B125616561A56294F896
:1012C000510040B10CE0012070BD6068B0F5827F34
:1012D000F4D0E561F2E784F85050204600F044F87D
:1012E000022084F851002068016821F0400101606B
:1012F000A088218900F4827001F404410843A18987
:1013000001F400610843217C01F002010843217DC2
:1013100001F001010843218B01F400710843217F92
:1013200001F03801084394F8201001F080010843CF
:10133000218D01F40051084321680860A06904214F
:1013400001EA104094F8241001F0100108432168CC
:1013500048602068C16921F40061C16165650120B0
:1013600084F85100002070BD10B586B004461421E9
:101370006846FEF777FF13492068884220D112485B
:101380000021026842F480520260006800F480503C
:1013900005900D481438026842F0010202600068AE
:1013A00000F001000590A02000900220CDE901018D
:1013B000032003900520049069460448FEF7AEFF21
:1013C00006B010BD00300140443802400000024029
:1013D0007047704770B590F83C20012A2CD001244A
:1013E00080F83C40022280F83D2003685A689D68DE
:1013F00022F070060A6832435A60104B02689A4223
:101400000ED0B2F1804F0BD00D4B9A4208D00D4B4D
:101410009A4205D00C4B9A4202D00C4B9A4204D10E
:10142000496825F080031943916080F83D40002110
:1014300080F83C10084670BD022070BD00000140DD
:101440000004004000080040000C00400040014043
:1014500010B5040003D094F83D0010B107E001205E
:1014600010BD002084F83C00204600F01FF8022048
:1014700084F83D00211D206801F0B8F8012084F8AF
:10148000460084F83E0084F83F0084F8400084F869
:10149000410084F8420084F8430084F8440084F852
:1014A000450084F83D00002010BD000010B586B056
:1014B000044614216846FEF7D5FE1249206888428A
:1014C0001ED111480021026842F002020260006849
:1014D00000F0020005900C481038026842F001024A
:1014E0000260006800F0010005904020009002209A
:1014F000CDE90101CDE9031069460448FEF70EFF6E
:1015000006B010BD00040040403802400000024018
:1015100090F83D10012901D001207047022180F888
:101520003D100168CA6842F00102CA6000680E49B5
:1015300088420ED0B0F1804F0BD00C49884208D0C1
:101540000B49884205D00B49884202D00A4988429B
:1015500004D1816801F00701062903D0016841F038
:1015600001010160002070470000014000040040BC
:1015700000080040000C00400040014070B50446E7
:1015800090F83C000025012817D0012684F83C6023
:10159000022084F83D002068826822F0770222F45D
:1015A0007F4282600868502838D00DDC20284FD058
:1015B00005DC90B3102811D14AE0022070BD30281C
:1015C00046D040280AD13BE060282FD070280DD0AB
:1015D000B0F5805F03D0B0F5005F12D0012584F82C
:1015E0003D60002084F83C00284670BDCB68D1E9FE
:1015F0000121206801F04AF82068816841F07701F4
:1016000009E0CB68D1E90121206801F03FF82068AA
:10161000816841F480418160E1E719E0CA68496866
:10162000206801F02DF95021206806E0CA68496859
:10163000206801F06DF96021206801F031F8CEE7F3
:10164000CA684968206801F01BF940212068F4E766
:10165000226801461046F0E770472DE9F041054643
:1016600090F83C0000260C46012810D0012085F897
:101670003C0072B1042A1CD0082A2CD00C2A50D06D
:101680000126002085F83C003046BDE8F0810220AC
:10169000FBE7D4E90012E368286801F003F9286841
:1016A000816921F00C01816128688169A268114378
:1016B0000FE0D4E90012E368286801F03BF92868DC
:1016C000816921F44061816128688169A26841EAE9
:1016D00002218161D5E72868D4E9002C277B036AC1
:1016E000016A21F480710162C16923F4206321F051
:1016F000030141EA0C0121F0F00C39074FF4206797
:101700004CEA116107EA02221A43C16102622868A9
:10171000C16921F00C01C1612868C169A268114347
:101720002BE02868D4E90021E768036AD0F820C0DC
:101730002CF4805CC0F820C0D0F81CC023F42043F7
:101740002CF4407C4CEA012121F4704C4FF6FF71DF
:1017500001EA07314FF4204741EA0C0107EA02325F
:101760001A43C16102622868C16921F44061C16104
:101770002868C169A26841EA0221C16181E710B508
:10178000040003D094F83D0010B107E0012010BD23
:10179000002084F83C00204600F01EF8022084F867
:1017A0003D00211D206800F021FF012084F8460043
:1017B00084F83E0084F83F0084F8400084F841003B
:1017C00084F8420084F8430084F8440084F845001B
:1017D00084F83D00002010BD70472DE9F04104461B
:1017E0000068C66805694FF00007A90713D5B1075F
:1017F00011D5F91E016101202077206880698007DA
:10180000204602D0FFF728FF04E000F0A7F82046AA
:1018100000F039F92777680716D5700714D52168C5
:101820006FF004000861022020772068806910F4BE
:10183000407F204602D0FFF70FFF04E000F08EF853
:10184000204600F020F92777280715D5300713D553
:1018500021686FF008000861042020772068C069C3
:101860008007204602D0FFF7F7FE04E000F076F88C
:10187000204600F008F92777E80616D5F00614D5BB
:1018800021686FF010000861082020772068C06987
:1018900010F4407F204602D0FFF7DEFE04E000F0A7
:1018A0005DF8204600F0EFF82777E80708D0F0074A
:1018B00006D021686FF001000861204600F0E4F8CE
:1018C000280608D5300606D521686FF0800008612B
:1018D0002046FFF77DFD680608D5700606D521680D
:1018E0006FF040000861204600F003F9A8060AD511
:1018F000B00608D521686FF0200008612046BDE8D9
:10190000F041FFF766BDBDE8F081000010B586B07C
:10191000044614216846FEF7A5FC0D49206888425C
:1019200014D10C480021026842F0020202600068F3
:1019300000F002000590012000900220CDE9010195
:10194000CDE9031069460448FEF7E8FC06B010BD77
:10195000000400403038024000040240704770B577
:10196000044690F83C0000260D4601280FD00120C7
:1019700084F83C006AB1042A1DD0082A2FD00C2A12
:101980003FD00126002084F83C00304670BD022084
:1019900070BD206800F08CFE2068816941F008016C
:1019A00081612068816921F0040181612068816979
:1019B0002A69114311E0206800F0A2FE20688169C5
:1019C00041F4006181612068816921F48061816155
:1019D000206881692A6941EA02218161D2E7206891
:1019E00000F0BAFE2068C16941F00801C1612068B9
:1019F000C16921F00401C1612068C1692A691143EC
:101A000011E0206800F0D4FE2068C16941F4006153
:101A1000C1612068C16921F48061C1612068C16928
:101A20002A6941EA0221C161ACE710B5040003D084
:101A300094F83D0010B107E0012010BD002084F8AB
:101A40003C00204600F01EF8022084F83D00211DD5
:101A5000206800F0CBFD012084F8460084F83E00A9
:101A600084F83F0084F8400084F8410084F8420084
:101A700084F8430084F8440084F8450084F83D006D
:101A8000002010BD7047704700680349884201D1AB
:101A9000FFF78AB8704700000000014070B50446A7
:101AA00090F83C00012812D0012584F83C50022017
:101AB00084F83D00204600F09DFE01004FF000003C
:101AC00007D084F83D5084F83C00012070BD02200E
:101AD00070BD2168CA6822F04002CA602168CA68E5
:101AE00022F48042CA6084F83D5084F83C00002013
:101AF00070BD704770B5040004D094F84100002513
:101B000010B106E0012070BD84F84050204600F07E
:101B100023F8242084F841002068C16821F4005192
:101B2000C160204600F022FF2068016921F4904145
:101B300001612068416921F02A0141612068C16882
:101B400041F40051C1606564202084F8410084F8AC
:101B500042006563002070BD10B586B004461421B4
:101B60006846FEF77FFB14492068884221D113485C
:101B70000021026842F010020260006800F01000CC
:101B800005900E481438026842F0010202600068B5
:101B900000F0010005904FF4C06000900220CDE9F4
:101BA0000101032003900720049069460448FEF7D2
:101BB000B5FB06B010BD00000010014044380240E3
:101BC00000000240FEE701684A69D24352050FD483
:101BD0006FF480624A61002140F8301F2022427376
:101BE0008173026942F004020261017301207047AF
:101BF000002070472DE9F84F0446006889460B9D88
:101C000001689846174641F48061016020680168C8
:101C100041F48071016000954FF0011B002259468C
:101C200020460A9B00F026F94FF4007A40B1206864
:101C30000068C00501D5C4F840A00320BDE8F88FB6
:101C4000216809F0FE0008612B46284920460A9ABF
:101C500000F058F9F0BB20684169806900902A467D
:101C600020460A9900F0E4F940B1206C04283AD1EA
:101C70002068016841F40071016034E0FEB2B8F1FF
:101C8000010F09D02168380A08612A4620460A99BE
:101C900000F0CEF90028E8D1206806612A462046E7
:101CA0000A9900F0C5F90028DFD12068016841F4E5
:101CB0008071016000950022594620460A9B00F081
:101CC000D9F80028B3D1216809F0FF0040F00100E5
:101CD000086100E007E02B46044920460A9A00F01C
:101CE00011F90028AAD00120A8E700000200010095
:101CF0002DE9F843044600680D46DDE908970168C0
:101D00009846164641F4807101604B4600224FF020
:101D100001112046009700F0ADF848B12068006836
:101D2000C00502D54FF4007020640320BDE8F8839D
:101D3000216805F0FE0008613B464A4615492046E9
:101D400000F0E0F888B920684169806900903A465F
:101D50004946204600F06CF948B1206C042804D1B3
:101D60002068016841F4007101600120DEE7F5B2EE
:101D7000B8F1010F09D02168300A08613A46494696
:101D8000204600F055F90028E7D1206805610020C1
:101D9000CCE700000200010070B500250EA1284626
:101DA00000F0F6FA01246100142302220D48FEF728
:101DB00075FC30B922460CA1002000F0E9FA6D1C38
:101DC000EDB2641CE4B2802CEDD32A46BDE870402D
:101DD0000AA1002000F0DCBA493243207363616E2F
:101DE0002E0D0A00100000202020666F756E643AE8
:101DF000203078253032580D0A0000004932432047
:101E00007363616E20646F6E653A2025642064659B
:101E1000766963652873290D0A00000070B51646BF
:101E20000D4604461EE02046FFF7CDFE08B1012016
:101E300070BD681C16D0FEF767FB801BA84200D857
:101E400085B920684069C04340070BD5002044F89D
:101E5000300F20216173A073216941F020012161BD
:101E60002073E4E720684069C0434007DBD40020CA
:101E700070BD00002DE9F047984617460D46044610
:101E8000C1F30746DDF820902AE000BFB8F1FF3F1C
:101E900026D0FEF739FBA0EB0901414502D8B8F185
:101EA000000F1DD12068012E16D0806925EA0000A0
:101EB0000004000C12D00020B84211D1002044F8D8
:101EC000300F20216173A073216941F0200121614D
:101ED00020730120BDE8F0874069E7E70120EBE7C8
:101EE0002068012E0AD0806925EA00000004000C59
:101EF00006D00020B842C9D00020EBE74069F3E7E4
:101F00000120F7E72DE9F047984616460D460446AE
:101F10004FF000094FF0200AC1F3074723E0206883
:101F20004069C043400515D42068016841F4007140
:101F3000016021686FF480604861C4F8309084F8D3
:101F40003DA084F83E90216C41F00401216484F8A6
:101F50003C9021E0701C06D0FEF7D6FAA0EB0800FA
:101F6000B04203D816B1012F1FD021E02068012F05
:101F700015D0806925EA00000004000C18D000BFCD
:101F800044F8309F84F80DA084F80E90216941F048
:101F90002001216184F80C900120BDE8F0874069A0
:101FA00025EA00000004000CEAD12068406901E045
:101FB0002068806925EA00000004000CAFD1ECE73E
:101FC0002DE9F041002590460E460446202728E0E2
:101FD0004069C043C0060CD454F8301B6FF01000A9
:101FE000486144F810596777A577206A2062257701
:101FF00014E0FEF789FAA0EB0800B04200D886B9D9
:1020000020684069C04340060BD544F8305F6773D1
:10201000A573206940F02000206125730120BDE8F0
:10202000F08120684169C9434906D1D40020F6E710
:1020300070B516460D4604461EE02046FFF7C3FD68
:1020400008B1012070BD681C16D0FEF75DFA801B38
:10205000A84200D885B920684069C04300060BD566
:10206000002044F8300F20216173A073216941F0F2
:10207000200121612073E4E720684069C043000625
:10208000DBD4002070BD00002DE9F04186B01421A2
:102090006846FEF7E7F822480024016841F0800115
:1020A0000160016801F080010591016841F00101C2
:1020B0000160016801F001010591016841F0020130
:1020C00001600068174F00F0020005900122102106
:1020D0003846FEF713FADFF850800022022140460E
:1020E000FEF70CFA012291024046FEF707FA102093
:1020F00001250326CDE90005CDE9024669463846AB
:10210000FEF70CF940F20240CDE90005CDE90246A8
:1021100069464046FEF702F906B0BDE8F0810000CE
:102120003038024000000240000402400D4810B563
:102130000B4901600C49416000214FF480428160ED
:10214000C0E9031241618161C1610162FEF7E2F9F8
:10215000002803D0BDE81040FEF7CCB810BD000049
:102160000054004010000020A0860100104810B567
:102170000E4901604FF482714160002102228160AA
:10218000C0E9031201224261520282611822C0E9B1
:102190000721416281620A21C162FFF787F80028A6
:1021A00003D0BDE81040FEF7A5B810BD00300140D7
:1021B0006400002010B596B000241094119412947D
:1021C00014210BA81394FEF74DF800940194029487
:1021D000039414941C2104A81594FEF743F8354881
:1021E000334901606321C0E9011440F2E731C0E9DD
:1021F00003148461FFF72CF908B1FEF77BF84FF464
:102200008050109010A92B48FFF7B8F908B1FEF7DD
:1022100071F82848FFF709FC08B1FEF76BF825486C
:10222000FFF7ADFA08B1FEF765F804200B905020D7
:10223000CDE90C040E940BA91E480F94FFF72EFC59
:1022400008B1FEF757F80120CDE9004002940022C2
:10225000694618480394FFF700FA08B1FEF74AF8F8
:10226000022000900190042269461248FFF7F5F918
:1022700008B1FEF73FF8149414A90E481594FFF71F
:10228000A9F808B1FEF736F8602004903220CDE9B5
:102290000504082204A907480894FFF760FB08B169
:1022A000FEF728F80348FFF731FB16B010BD000019
:1022B00000040040BC0000200C4810B50A49016031
:1022C0004FF4E1314160002181600C22C160C0E91E
:1022D00004128161C161FFF70DFC002803D0BDE845
:1022E0001040FEF707B810BD0010014004010020A7
:1022F000FEE7FEE7704700F0C1BB00002DE9F041AA
:1023000007460B4815460E46007808B900F0B6FBA4
:10231000EFF31184202080F311882A463146384695
:1023200000F008F8E1B281F31188BDE8F081000007
:102330009401002070B50E46144900EB400001EBFB
:10234000C0051446E86A183520B101280FD00228CC
:1023500005D113E0284600F0C5FBA04201D20024BD
:1023600011E022463146284600F0E2FC0BE0284608
:1023700000F0B8FBA042F4D20446F2E7314628460A
:1023800000F0A9FC0446204670BD00009401002026
:102390000FB408B504A900916A46039900F003F848
:1023A00001B05DF814FB2DE9F04198B0064607A88E
:1023B000029040200025CDE90305CDE90556904661
:1023C0000C4614F8011B002973D0252908D002A857
:1023D00000F062FC05980028F3DA18B0BDE8F0813F
:1023E000002001212278232A1ED02B2A19D02D2A41
:1023F00002D0302A08D102E040F0010001E040F0B4
:102400000200641C0029EDD100222178A1F13003E3
:102410000A2B0CD202EB820201EB4202303A641C1E
:10242000F3E740F00400ECE740F00800E9E70023A0
:10243000CFB22E2F0BD114F8011FA1F130070A2FB4
:1024400005D203EB830301EB4303303BF3E76C2935
:102450000DD068290BD0702954D00BDC252916D05B
:10246000582931D063290CD0642913D114E014F811
:10247000011FECE7732934D075291BD0782909D1C5
:1024800022E0D8F80000011DC8F80010017802A869
:1024900000F002FC641C9DE7D8F800100F1DC8F87E
:1024A00000700968CDE900200A2202A800F026FB8E
:1024B000F0E733E0D8F800100F1DC8F80070096885
:1024C000CDE900200A2208E0D8F800100F1DC8F856
:1024D00000700968CDE90020102202A800F072FB0C
:1024E000D8E7D8F80000011DC8F80010076817F8F1
:1024F000011B0029CED002A800F0CEFB05980028D1
:10250000F5DAC7E7D8F80000011DC8F80010016827
:102510000820CDE9000503461022DEE705980028D3
:102520007FF75BAF049820B1024607A93046FFF75A
:10253000E5FEDDE90410084405904EE7704770475A
:1025400030B593B030216846FDF78CFE14210CA8FD
:10255000FDF788FE1C480025016841F080510160AC
:10256000006800F0805011901848016841F4404123
:1025700001600068022400F44040119001200090A6
:10258000000401908001CDE906400C2008906020F5
:10259000CDE9090404200B906846FEF7D1FC08B190
:1025A00072B6FEE70CA90F2081E831004FF480508D
:1025B000CDE90F0503210CA8FEF7B6FB002801D0DA
:1025C00072B6FEE713B030BD4038024000700040E4
:1025D0000248016841F470010160704788ED00E035
:1025E0000148FFF7FAB800004C010020F0B502687E
:1025F0001F4B204C204D214E4FF0804C984207D06D
:10260000604505D0A04203D0A84201D0B04203D11A
:1026100022F070074A683A43984210D060450ED0C5
:10262000A0420CD0A8420AD0B04208D0144CA0421C
:1026300005D0144CA04202D0134CA04203D122F486
:102640004074CA6822434C6922F0800222438C689D
:10265000C4620C688462984201D10969016301680F
:1026600041F004010160012141610260F0BD000000
:10267000000001400004004000080040000C004041
:1026800000400140004401400048014010B584680A
:1026900042EA032224F47F440A432243826010BDAD
:1026A000826822F070020A4342F00701816070479D
:1026B00030B5036A026A22F001020262426884694C
:1026C00024F073050C682C4323F002058B682B4320
:1026D0000A4DA8420BD123F00805CB6822F44072C2
:1026E0002B434D6923F0040315438A692A43426052
:1026F000846149684163036230BD0000000001400D
:1027000030B5026A036A23F01003036243688469E8
:102710000D6824F4E64444EA05248D6822F0200282
:1027200042EA05120B4DA8420ED1CD6822F080027C
:1027300042EA05124D6923F4406343EA85038D693B
:1027400022F0400243EA8503436084614968816363
:10275000026230BD0000014030B5036A026A22F413
:10276000807202624268C46923F4007324F0730526
:102770000C682C438D6843EA05230C4DA8420ED10A
:10278000CD6823F4006343EA05234D6922F44052E7
:1027900042EA05128D6923F4806342EA0512426021
:1027A000C4614968C163036230BD0000000001409C
:1027B00030B5046A026A22F4805202624268C36938
:1027C0000D6823F4E64343EA05238D6824F400549E
:1027D00044EA0534064DA84204D14D6922F48042F2
:1027E00042EA85124260C36149680164046230BDF7
:1027F0000000014070B5036800249A6822F070055B
:102800004A682A4322F007050A682A439A604A6800
:1028100012F00F0F31D11211082A2ED2DFE802F088
:102820002E2E2E2E0B2127040B69D1E902210068E0
:10283000FFF72CFF22E00A68052A10D00268136A0D
:10284000156A25F00105156202689569096925F088
:10285000F00545EA01119161006803620EE0012074
:1028600070BD0A698968006800F00AF806E00A6924
:102870008968006800F04CF800E00124204670BD33
:1028800010B5036A046A24F001040462846924F028
:10289000F00444EA021423F00A020A43846102624B
:1028A00010BD000070B5056A046A24F001040462DA
:1028B0008469124EB0420ED0B0F1804F0BD0104E52
:1028C000B04208D00F4EB04205D00F4EB04202D0F9
:1028D0000E4EB04203D124F00304144301E044F04F
:1028E00001041A0724F0F00444EA126225F00A03F6
:1028F00001F00A0119438261016270BD00000140CC
:102900000004004000080040000C0040004001406E
:1029100010B5036A046A24F010040462846923F089
:10292000A00324F4704444EA023243EA01118261B4
:10293000016210BD30B5046A056A25F01005056214
:10294000856925F4407545EA022222F470454FF668
:10295000FF7202EA033224F0A0032A43A02404EA0F
:10296000011119438261016230BD000070B5044657
:1029700000680169E26821F4405111430161216955
:10298000A068E26908436169114308432168CA6885
:1029900049F20C639A430243CA6020684169A26904
:1029A00021F440711143416131492068884202D0CD
:1029B0003049884202D1FEF781FA01E0FEF76EFA53
:1029C000E2690023192164253226B2F5004F6268BE
:1029D00028D0A0FB0101930F9200FDF7F9FB0146FF
:1029E000B0FBF5F06FF01802504301EB800006EBEE
:1029F0000010B0FBF5F000F0F002B1FBF5F002EBD7
:102A00000012B1FBF5F06FF01803584301EB8000A2
:102A100006EB0010B0FBF5F000F00F002168104449
:102A2000886070BDA0FB010192185B41FDF7D0FBEF
:102A30000146B0FBF5F00201B1FBF5F06FF01803B1
:102A4000584301EB800006EBC000B0FBF5F000F04E
:102A5000F80002EB4002B1FBF5F0584301EB8000B7
:102A600006EBC000B0FBF5F000F00700D6E7000071
:102A70000010014000140140FEE7000010B5124CA8
:102A800003202061606111A0A06104F1A800E06151
:102A90004FF4806020620020A06260620BA121667A
:102AA000E06204F59561616610212067C4E91A109F
:102AB000606709A1E01DFDF7E0FB08A12046FDF7D6
:102AC000DCFB2020A07110BD940100205465726DC4
:102AD000696E616C00000000525454005345474732
:102AE000455200000269C1688A4203D88068401AD2
:102AF000104400E0501A401E704700002DE9FC5FB2
:102B00000E008146DDE90C47C6F100009846934669
:102B1000824600D40846012503E000BF90FBFBF08D
:102B20006D1C5845FADAA84500D9454624B1002E57
:102B300001DB780700D5641EB80702D5B8F1000F95
:102B40000FD0F8070DD164B1A5420AD22021484622
:102B5000641E00F0A1F8D9F80C000028F3DABDE8F3
:102B6000FC9FD9F80C000028F9DB002E02DA56464B
:102B70002D2102E0780707D52B21484600F08CF87C
:102B8000D9F80C000028EADB07F0030002280FD177
:102B9000B8F1000F0CD15CB1A54209D230214846F2
:102BA000641E00F079F8D9F80C000028F3DAD6E7B3
:102BB000CDE9004743465A463146484600F002F800
:102BC000CDE700002DE9F84F8246DDE90A4B0126EA
:102BD000984691460D460846374602E0B0FBF9F0AC
:102BE0007F1C4845FAD2B84500D947465FEACB700A
:102BF00017D1B4B15FEA8B7002D5B8F1000F02D0E3
:102C0000202000900BE03020FBE75046641E009926
:102C100000F042F8DAF80C00002838DB0CB1A742CB
:102C2000F3D3DAF80C00002831DB00BFB8F1010F54
:102C300002D9A8F1010803E0B5FBF6F0484502D33C
:102C400006FB09F6F2E7DFF84C8000BFB5FBF6F0B3
:102C500000FB165518F80010504600F01DF8DAF881
:102C60000C00002803DBB6FBF9F6002EEED15FEA7C
:102C7000CB700CD0002C0AD0A74208D2202150469D
:102C8000641E00F009F8DAF80C000028F2DABDE85A
:102C9000F88F0000A02E000810B50446D4E90130DA
:102CA000421C934205D323681954A260E068401C7B
:102CB000E060D4E90102824209D121682069FFF76E
:102CC0001DFBA168884203D04FF0FF30E06010BDCB
:102CD0000020A06010BD2DE9F047C4681746894662
:102CE00006464FF000083069A04201D9051B02E0FA
:102CF000B168201A0D1AB0686D1E001BA84200D8DA
:102D00000546BD4200D33D4670682A4620444946E8
:102D1000FDF78FFAB0687F1B2C44A844A944A04259
:102D200000D10024F460002FDDD14046BDE8F087DB
:102D30002DE9F04104468846D4E90207C51BE16845
:102D4000606816460844B54206D94146FDF771FA57
:102D5000B819E060BDE8F0812A464146FDF769FAFE
:102D6000761B08EB050132466068FDF762FAE66003
:102D7000F0E70907090E002804DB00F1E02080F8E5
:102D80000014704700F00F0000F1E02080F8141DDF
:102D9000704702E008C8121F08C1002AFAD1704724
:102DA0007047002001E001C1121F002AFBD17047CB
:102DB00086B0FDF701FFFFF7C3FBFFF765F9FFF7EB
:102DC0007BFAFFF7F7F9FFF7D1F9FFF7AFF9FFF754
:102DD00092FA1BA10020FFF7DBFAC820FDF78CFA5E
:102DE000FEF7DAFFA5208DF80C0000208DF810000A
:102DF000012503A8CDE9000564242B460022A0216B
:102E000002941348FDF702FE0A20FDF775FA04A8A4
:102E1000CDE9000501230022A02102940C48FDF712
:102E2000F3FC9DF810309DF80C20934201D109A0CD
:102E300000E009A000900AA10020FFF7A9FAFEE730
:102E40002D2D2D20626F6F74202D2D2D0D0A000069
:102E5000100000204F4B00004641494C000000008C
:102E6000454550524F4D2077726974653D30782545
:102E700030325820726561643D30782530325820F8
:102E80002D3E2025730D0A00000000000000000008
:102E90000102030406070809000000000102030400
:102EA0003031323334353637383941424344454680
:102EB000D02E00080000002010000000922D000815
:102EC000E02E000810000020400A0000A22D00089B
:102ED0000100000010000000000000000024F400C9
:040000050800019955
:00000001FF
